:020000040000FA
:040000007DEF7CF024
:10F8FA0000011EEF7EF0070E826E270E826E070E43
:10F90A00826E120098EC7CF0060E57EC7DF080ECCB
:10F91A007CF012009EAA94EF7CF096EF7CF08FEFB9
:10F92A007CF0AE5012000F0E826E2F0E826E0F0EFA
:10F93A00826E070E826E1200016EACA2A7EF7CF0F7
:10F94A00A9EF7CF0A2EF7CF001C0ADFF1200070E18
:10F95A00826E000E016E0F0E826E82508250100B64
:10F96A00026E0250D8B4BCEF7CF0BEEF7CF0C1EF5F
:10F97A007CF00150800F016E070E826E0F0E826EB0
:10F98A008250100B026E8250100B026E0250D8B4D5
:10F99A00D1EF7CF0D3EF7CF0D6EF7CF00150400F32
:10F9AA00016E070E826E0F0E826E8250100B026E6F
:10F9BA008250100B026E0250D8B4E6EF7CF0E8EFEA
:10F9CA007CF0EBEF7CF00150200F016E070E826E87
:10F9DA000F0E826E8250100B026E8250100B026E56
:10F9EA000250D8B4FBEF7CF0FDEF7CF000EF7DF025
:10F9FA000150100F016E070E826E0F0E826E82503A
:10FA0A00100B026E8250100B026E0250D8B410EF27
:10FA1A007DF012EF7DF015EF7DF00150080F016EB9
:10FA2A00070E826E0F0E826E8250100B026E82508B
:10FA3A00100B026E0250D8B425EF7DF027EF7DF04F
:10FA4A002AEF7DF00150040F016E070E826E0F0E31
:10FA5A00826E8250100B026E8250100B026E0250A0
:10FA6A00D8B43AEF7DF03CEF7DF03FEF7DF00150E6
:10FA7A00020F016E070E826E0F0E826E8250100BFD
:10FA8A00026E8250100B026E0250D8B44FEF7DF016
:10FA9A0051EF7DF053EF7DF00128016E070E826E63
:10FAAA0001501200016E7F0E01645EEF7DF060EF7F
:10FABA007DF06BEF7DF0270E826E2F0E826E270E81
:10FACA00826E0150800F016E71EF7DF0070E826E1B
:10FADA000F0E826E070E826E3F0E016477EF7DF085
:10FAEA0079EF7DF084EF7DF0270E826E2F0E826E05
:10FAFA00270E826E0150C00F016E8AEF7DF0070E4D
:10FB0A00826E0F0E826E070E826E1F0E016490EFD8
:10FB1A007DF092EF7DF09DEF7DF0270E826E2F0E25
:10FB2A00826E270E826E0150E00F016EA3EF7DF008
:10FB3A00070E826E0F0E826E070E826E0F0E016422
:10FB4A00A9EF7DF0ABEF7DF0B6EF7DF0270E826E68
:10FB5A002F0E826E270E826E0150F00F016EBCEFDF
:10FB6A007DF0070E826E0F0E826E070E826E070EF2
:10FB7A000164C2EF7DF0C4EF7DF0CFEF7DF0270E78
:10FB8A00826E2F0E826E270E826E0150F80F016E62
:10FB9A00D5EF7DF0070E826E0F0E826E070E826E13
:10FBAA00030E0164DBEF7DF0DDEF7DF0E8EF7DF021
:10FBBA00270E826E2F0E826E270E826E0150FC0F68
:10FBCA00016EEEEF7DF0070E826E0F0E826E070E4B
:10FBDA00826E010E0164F4EF7DF0F6EF7DF001EF25
:10FBEA007EF0270E826E2F0E826E270E826E0150D5
:10FBFA00FE0F016E07EF7EF0070E826E0F0E826E09
:10FC0A00070E826E0150D8B40DEF7EF00FEF7EF032
:10FC1A0017EF7EF0270E826E2F0E826E270E826EEF
:10FC2A001DEF7EF0070E826E0F0E826E070E826E39
:10FC3A0012003F0E926E000E806E120E936EE00E50
:10FC4A00816E900E946E070E826E800E956E7C0EFB
:10FC5A00836E070E966E000EAC6E000EAB6EAC8411
:10FC6A00220EAF6E000EB06EAC98AC8AAB8EAB882B
:10FC7A008FEC7CF0086E0804D8A446EF7EF048EFBB
:10FC8A007EF08CEF7EF087EC7CF098EC7CF0420EF4
:10FC9A0057EC7DF0550E57EC7DF0550E57EC7DF084
:10FCAA00000E57EC7DF0000E57EC7DF0000E57EC7D
:10FCBA007DF0000E57EC7DF0000E57EC7DF0000E43
:10FCCA0057EC7DF0000E57EC7DF0000E57EC7DF0FE
:10FCDA00000E57EC7DF0000E57EC7DF0000E57EC4D
:10FCEA007DF0000E57EC7DF0000E57EC7DF0000E13
:10FCFA0057EC7DF0000E57EC7DF0000E57EC7DF0CE
:10FD0A0080EC7CF00850A1EC7CF03DEF7EF0020E16
:10FD1A000818D8A493EF7EF095EF7EF0E8EF7EF016
:10FD2A0087EC7CF098EC7CF0010E57EC7DF0000E2D
:10FD3A0057EC7DF0800E57EC7DF080EC7CF087EC80
:10FD4A007CF098EC7CF0420E57EC7DF0000E57ECFC
:10FD5A007DF0000E57EC7DF0000E57EC7DF0000EA2
:10FD6A0057EC7DF0000E57EC7DF0000E57EC7DF05D
:10FD7A00000E57EC7DF0000E57EC7DF0000E57ECAC
:10FD8A007DF0000E57EC7DF0000E57EC7DF0000E72
:10FD9A0057EC7DF0000E57EC7DF0000E57EC7DF02D
:10FDAA00000E57EC7DF0000E57EC7DF0000E57EC7C
:10FDBA007DF0000E57EC7DF080EC7CF00850A1EC51
:10FDCA007CF03DEF7EF0030E0818D8A4EFEF7EF02A
:10FDDA00F1EF7EF00BEF7FF08FEC7CF0076E87EC93
:10FDEA007CF098EC7CF0D80E57EC7DF0075057EC7D
:10FDFA007DF0000E57EC7DF0000E57EC7DF080ECA4
:10FE0A007CF00850A1EC7CF03DEF7EF0040E08185F
:10FE1A00D8A412EF7FF014EF7FF065EF7FF08FEC3C
:10FE2A007CF0076E8FEC7CF0066E000E0A6E000EF8
:10FE3A00096E000E0924D96E010E0A20DA6E8FECC3
:10FE4A007CF0DF6E094A0A2A0ABE32EF7FF00A0402
:10FE5A00D8A032EF7FF034EF7FF01EEF7FF087EC0F
:10FE6A007CF098EC7CF0020E57EC7DF0075057ECD2
:10FE7A007DF0065057EC7DF0000E57EC7DF0000E39
:10FE8A000A6E000E096E000E0924D96E010E0A20B0
:10FE9A00DA6EDF5057EC7DF0094A0A2A0ABE5CEF97
:10FEAA007FF00A04D8A05CEF7FF05EEF7FF048EFA6
:10FEBA007FF080EC7CF00850A1EC7CF03DEF7EF006
:10FECA00050E0818D8A46CEF7FF06EEF7FF0BAEF3A
:10FEDA007FF08FEC7CF0076E8FEC7CF0066E98EC6E
:10FEEA007CF0030E57EC7DF0075057EC7DF006507E
:10FEFA0057EC7DF0000E57EC7DF0000E0A6E000EF6
:10FF0A00096E000E0924D96E010E0A20DA6EACECD5
:10FF1A007CF0DF6E094A0A2A0ABE9AEF7FF00A04C9
:10FF2A00D8A09AEF7FF09CEF7FF086EF7FF080EC0D
:10FF3A007CF0000E0A6E000E096E000E0924D96EBE
:10FF4A00010E0A20DA6EDF50A1EC7CF0094A0A2A77
:10FF5A000ABEB6EF7FF00A04D8A0B6EF7FF0B8EF7A
:10FF6A007FF0A2EF7FF03DEF7EF0060E0818D8A4CE
:10FF7A00C1EF7FF0C3EF7FF0D2EF7FF098EC7CF017
:10FF8A00050E57EC7DF0ACEC7CF0056E0550A1EC4B
:10FF9A007CF080EC7CF03DEF7EF0070E0818D8A4C8
:10FFAA00D9EF7FF0DBEF7FF0FCEF7FF08FEC7CF096
:10FFBA00076E8FEC7CF0066E8FEC7CF0036E98EC8B
:10FFCA007CF0030E57EC7DF0075057EC7DF006509D
:10FFDA0057EC7DF0035057EC7DF0ACEC7CF0046EEE
:10FFEA0080EC7CF00450A1EC7CF03DEF7EF03DEF1C
:06FFFA007EF000EF00F0B4
:020000040020DA
:08000000FFFFFFFFFFFFFFFF00
:020000040030CA
:0E000000FF06051EFF8181FF0FC00FE00F40BD
:00000001FF
